:100000000C9435000C945D000C945D000C945D0024
:100010000C945D000C945D000C945D000C945D00EC
:100020000C945D000C945D000C945D000C945D00DC
:100030000C945D000C945D000C945D000C945D00CC
:100040000C9468030C945D000C9436030C9410031C
:100050000C945D000C945D000C945D000C945D00AC
:100060000C945D000C945D00EE0411241FBECFEFD4
:10007000D8E0DEBFCDBF11E0A0E0B1E0E2E0FFE0FC
:1000800002C005900D92AE35B107D9F722E0AEE57A
:10009000B1E001C01D92A031B207E1F710E0C5E365
:1000A000D0E004C02197FE010E947907C433D10734
:1000B000C9F70E94B2030C947F070C940000AF9222
:1000C000BF92CF92DF92EF92FF920F931F93CF9345
:1000D000DF936C017B018B01040F151FEB015E01A7
:1000E000AE18BF08C017D10759F06991D601ED913C
:1000F000FC910190F081E02DC6010995892B79F7DB
:10010000C501DF91CF911F910F91FF90EF90DF908C
:10011000CF90BF90AF900895FC01538D448D252F53
:1001200030E0842F90E0821B930B541710F0CF9691
:10013000089501970895FC01918D828D981761F0C3
:10014000A28DAE0FBF2FB11D5D968C91928D9F5FDA
:100150009F73928F90E008958FEF9FEF0895FC01B9
:10016000918D828D981731F0828DE80FF11D858D6C
:1001700090E008958FEF9FEF0895FC01918D228DFF
:10018000892F90E0805C9F4F821B91098F73992784
:10019000089583E791E00E94BD0021E0892B09F4D6
:1001A00020E0822F089580E090E0892B29F00E94C2
:1001B000C90081110C9400000895FC01A48DA80FC2
:1001C000B92FB11DA35ABF4F2C91848D90E0019699
:1001D0008F739927848FA689B7892C93A089B189B9
:1001E0008C91837080648C93938D848D981306C05A
:1001F0000288F389E02D80818F7D80830895EF92BE
:10020000FF920F931F93CF93DF93EC0181E0888FD0
:100210009B8D8C8D98131AC0E889F989808185FFA0
:1002200015C09FB7F894EE89FF896083E889F98942
:1002300080818370806480839FBF81E090E0DF9144
:10024000CF911F910F91FF90EF900895F62E0B8D97
:1002500010E00F5F1F4F0F731127E02E8C8D8E1152
:100260000CC00FB607FCFACFE889F989808185FFB9
:10027000F5CFCE010E94DD00F1CFEB8DEC0FFD2F0D
:10028000F11DE35AFF4FF0829FB7F8940B8FEA8974
:10029000FB8980818062CFCFCF93DF93EC01888D83
:1002A0008823B9F0AA89BB89E889F9898C9185FDF1
:1002B00003C0808186FD0DC00FB607FCF7CF8C917F
:1002C00085FFF2CF808185FFEDCFCE010E94DD005A
:1002D000E9CFDF91CF9108958E50806480937C00A8
:1002E00080917A00806480937A0080917A0086FD04
:1002F000FCCF809178009091790008953FB7F894F1
:100300008091630190916401A0916501B0916601B3
:1003100026B5A89B05C02F3F19F00196A11DB11D60
:100320003FBFBA2FA92F982F8827BC01CD01620F9C
:10033000711D811D911D42E0660F771F881F991F57
:100340004A95D1F708958F929F92AF92BF92CF9224
:10035000DF92EF92FF924B015C010E947E016B01E4
:100360007C010E947E016C197D098E099F09683EFF
:10037000734081059105A8F321E0821A9108A10834
:10038000B10888EEC80E83E0D81EE11CF11C811470
:100390009104A104B10429F7FF90EF90DF90CF9072
:1003A000BF90AF909F908F900895FC010190002026
:1003B000E9F73197AF01481B590BBC0183E791E086
:1003C0000C945F008F929F92AF92BF920F931F93F6
:1003D000CF93DF93CDB7DEB7A1970FB6F894DEBF0A
:1003E0000FBECDBF19A2423008F44AE08E010F5D66
:1003F0001F4F842E912CB12CA12CA50194010E9499
:100400005707E62FB901CA01EA30F4F4E05DD801DC
:10041000EE938D01232B242B252B79F790E080E0A0
:10042000109719F0CD010E94D501A1960FB6F8944E
:10043000DEBF0FBECDBFDF91CF911F910F91BF9057
:10044000AF909F908F900895E95CE1CFCF93DF93B9
:100450000E94D501EC0182E191E00E94D5018C0F50
:100460009D1FDF91CF9108954F925F926F927F927F
:100470008F929F92AF92BF92CF92DF92EF92FF92B4
:100480000F931F93CF936B017C01742EAC019B01E2
:100490000E945207882399F085E191E0CF911F9146
:1004A0000F91FF90EF90DF90CF90BF90AF909F9013
:1004B0008F907F906F905F904F900C94D501460184
:1004C0005701E894B7F82FEF3FEF4FE75FE7C5011B
:1004D000B4010E94520781110DC02FEF3FEF4FE78B
:1004E0005FE7C501B4010E94880518161CF489E174
:1004F00091E0D4CF2FEF3FEF4FE75FE4C701B601A4
:100500000E94E00618161CF48DE191E0C7CF2FEF92
:100510003FEF4FE75FECC701B6010E94880587FDFA
:10052000F3CF20E030E0A901C701B6010E948805A1
:1005300010E000E087FF0AC06DE283E791E00E94CF
:10054000FF008C01F7FAF094F7F8F094C0E060E057
:1005500070E080E09FE37C1641F020E030E040E274
:1005600051E40E948D05CF5FF6CFA70196010E944E
:100570001C052B013C010E94FF054B015C014AE078
:100580000E94E2017C01E00EF11ECC23C1F1C50105
:10059000B4010E942E069B01AC01C301B2010E946E
:1005A0001B054B015C016EE283E791E00E94FF00B6
:1005B000E80EF91EC15018F120E030E040E251E4AD
:1005C000C501B4010E94E5062B013C010E94FF0514
:1005D0004B01B12CA12C4AE0C501B4010E94E201FB
:1005E000E80EF91EC501B4010E942E069B01AC0164
:1005F000C301B2010E941B054B015C01DBCFC701A7
:10060000CF911F910F91FF90EF90DF90CF90BF900F
:10061000AF909F908F907F906F905F904F900895D4
:100620001F920F920FB60F9211242F933F934F9367
:100630005F936F937F938F939F93AF93BF93EF934A
:10064000FF9383E791E00E94DD00FF91EF91BF915E
:10065000AF919F918F917F916F915F914F913F915A
:100660002F910F900FBE0F901F9018951F920F9211
:100670000FB60F9211242F938F939F93EF93FF93B5
:10068000E0918301F09184018081E0918901F091F2
:100690008A0182FD1BC0908180918C018F5F8F73D6
:1006A00020918D01821741F0E0918C01F0E0ED582E
:1006B000FE4F958F80938C01FF91EF919F918F91C9
:1006C0002F910F900FBE0F901F9018958081F4CF3F
:1006D0001F920F920FB60F9211242F933F938F9377
:1006E0009F93AF93BF9380915F0190916001A09120
:1006F0006101B091620130915E0123E0230F2D373B
:1007000058F50196A11DB11D20935E0180935F01F4
:1007100090936001A0936101B093620180916301A5
:1007200090916401A0916501B09166010196A11DAF
:10073000B11D8093630190936401A0936501B09310
:100740006601BF91AF919F918F913F912F910F9033
:100750000FBE0F901F90189526E8230F0296A11D3B
:10076000B11DD2CF789484B5826084BD84B5816098
:1007700084BD85B5826085BD85B5816085BD80916C
:100780006E00816080936E001092810080918100E4
:1007900082608093810080918100816080938100DC
:1007A000809180008160809380008091B10084609E
:1007B0008093B1008091B00081608093B0008091FF
:1007C0007A00846080937A0080917A0082608093BE
:1007D0007A0080917A00816080937A0080917A001B
:1007E000806880937A001092C100E0918301F091BB
:1007F000840182E08083E0917F01F091800110828A
:10080000E0918101F09182018FEC808310928B0145
:10081000E0918701F091880186E08083E091850175
:10082000F0918601808180618083E0918501F09163
:100830008601808188608083E0918501F091860146
:10084000808180688083E0918501F09186018081BC
:100850008F7D808381E291E00E942602C0E0D0E09B
:100860008EE00E946C01BC01990F880B990B0E94CD
:10087000300620E030E040EA50E40E94E50620E047
:1008800030E040E85AE30E94E50660936F01709300
:100890007001809371019093720108EE13E08FE074
:1008A0000E946C01BC01990F880B990B0E943006C5
:1008B00020E030E040EA5BE30E94E50620916B0116
:1008C00030916C0140916D0150916E010E941C05A8
:1008D0006B017C01C0926B01D0926C01E0926D01C2
:1008E000F0926E0161E070E080E090E00E94A30170
:1008F00001501109A1F620E030E04AE754E4C701B5
:10090000B6010E948D0560936B0170936C0180931A
:100910006D0190936E0120E030E040E250E40E94CF
:100920001B0590582DEC3CEC4CE45EE30E948D05D9
:1009300060936701709368018093690190936A01E5
:1009400081E391E00E94D50160916B0170916C018F
:1009500080916D0190916E0142E00E94340289E322
:1009600091E00E94D5018CE391E00E94D501609155
:100970006701709168018091690190916A0142E07C
:100980000E94340289E491E00E9426028CE491E006
:100990000E94D50160916F01709170018091710189
:1009A0009091720142E00E94340289E391E00E943A
:1009B000260283E191E00E94260264EF71E080E06C
:1009C00090E00E94A301209709F44ACF0E94C90039
:1009D000882309F445CF0E94000042CFE3E7F1E00D
:1009E0001382128288EE93E0A0E0B0E084839583C6
:1009F000A683B78384E091E09183808385EC90E0C7
:100A00009587848784EC90E09787868780EC90E0D8
:100A1000918B808B81EC90E0938B828B82EC90E0C9
:100A2000958B848B86EC90E0978B868B118E128E43
:100A3000138E148E08955058BB27AA270E943305A1
:100A40000C94A6060E94980638F00E949F0620F09B
:100A500039F49F3F19F426F40C9495060EF4E095B2
:100A6000E7FB0C948F06E92F0E94B70658F3BA17DC
:100A7000620773078407950720F079F4A6F50C94B4
:100A8000D9060EF4E0950B2EBA2FA02D0B01B9015B
:100A900090010C01CA01A0011124FF27591B99F0F4
:100AA000593F50F4503E68F11A16F040A22F232F00
:100AB000342F4427585FF3CF469537952795A79550
:100AC000F0405395C9F77EF41F16BA0B620B730BF7
:100AD000840BBAF09150A1F0FF0FBB1F661F771F68
:100AE000881FC2F70EC0BA0F621F731F841F48F41D
:100AF000879577956795B795F7959E3F08F0B0CFA6
:100B00009395880F08F09927EE0F9795879508958C
:100B10000E946B0608F481E008950E94A1050C94E0
:100B2000A6060E949F0658F00E94980640F029F4FD
:100B30005F3F29F00C948F0651110C94DA060C9447
:100B400095060E94B70668F39923B1F3552391F3F4
:100B5000951B550BBB27AA2762177307840738F02C
:100B60009F5F5F4F220F331F441FAA1FA9F335D089
:100B70000E2E3AF0E0E832D091505040E695001C3D
:100B8000CAF72BD0FE2F29D0660F771F881FBB1FF7
:100B9000261737074807AB07B0E809F0BB0B802DD5
:100BA000BF01FF2793585F4F3AF09E3F510578F001
:100BB0000C948F060C94DA065F3FE4F3983ED4F36E
:100BC000869577956795B795F7959F5FC9F7880FD5
:100BD000911D9695879597F90895E1E0660F771F27
:100BE000881FBB1F621773078407BA0720F0621BB8
:100BF000730B840BBA0BEE1F88F7E09508950E94E3
:100C0000BF0688F09F5798F0B92F9927B751B0F0D9
:100C1000E1F0660F771F881F991F1AF0BA95C9F780
:100C200014C0B13091F00E94D906B1E008950C943F
:100C3000D906672F782F8827B85F39F0B93FCCF3F2
:100C4000869577956795B395D9F73EF490958095FD
:100C5000709561957F4F8F4F9F4F0895E89409C01D
:100C600097FB3EF490958095709561957F4F8F4FDF
:100C70009F4F9923A9F0F92F96E9BB279395F695F5
:100C8000879577956795B795F111F8CFFAF4BB0F73
:100C900011F460FF1BC06F5F7F4F8F4F9F4F16C0D7
:100CA000882311F096E911C0772321F09EE8872F61
:100CB000762F05C0662371F096E8862F70E060E01D
:100CC0002AF09A95660F771F881FDAF7880F969596
:100CD000879597F90895990F0008550FAA0BE0E83A
:100CE000FEEF16161706E807F907C0F012161306EE
:100CF000E407F50798F0621B730B840B950B39F42E
:100D00000A2661F0232B242B252B21F408950A2693
:100D100009F4A140A6958FEF811D811D089597F9D3
:100D20009F6780E870E060E008959FEF80EC089591
:100D300000240A94161617061806090608950024BA
:100D40000A9412161306140605060895092E039434
:100D5000000C11F4882352F0BB0F40F4BF2B11F4A8
:100D600060FF04C06F5F7F4F8F4F9F4F089557FD07
:100D70009058440F551F59F05F3F71F04795880F09
:100D800097FB991F61F09F3F79F0879508951216A0
:100D900013061406551FF2CF4695F1DF08C016164C
:100DA00017061806991FF1CF8695710561050894FD
:100DB0000895E894BB2766277727CB0197F9089514
:100DC0000E946B0608F48FEF08950E94F8060C94B9
:100DD000A6060E94980638F00E949F0620F09523F0
:100DE00011F00C948F060C94950611240C94DA06DD
:100DF0000E94B70670F3959FC1F3950F50E0551F01
:100E0000629FF001729FBB27F00DB11D639FAA275F
:100E1000F00DB11DAA1F649F6627B00DA11D661FAE
:100E2000829F2227B00DA11D621F739FB00DA11DCF
:100E3000621F839FA00D611D221F749F3327A00D89
:100E4000611D231F849F600D211D822F762F6A2F25
:100E500011249F5750409AF0F1F088234AF0EE0F8A
:100E6000FF1FBB1F661F771F881F91505040A9F7B7
:100E70009E3F510580F00C948F060C94DA065F3F7C
:100E8000E4F3983ED4F3869577956795B795F795F3
:100E9000E7959F5FC1F7FE2B880F911D969587956B
:100EA00097F908950E946B06880B990B0895A1E2AB
:100EB0001A2EAA1BBB1BFD010DC0AA1FBB1FEE1FD4
:100EC000FF1FA217B307E407F50720F0A21BB30B1F
:100ED000E40BF50B661F771F881F991F1A9469F79B
:100EE00060957095809590959B01AC01BD01CF01F7
:100EF0000895EE0FFF1F0590F491E02D0994F894EA
:020F0000FFCF21
:100F020000000000FF005F008C004C01BD009B0050
:100F1200AF000D0A006E616E00696E66006F766644
:100F220000444320566F6C74616765205465737486
:100F320000566F7574203D2000205600092043752D
:100F42007272656E74203D2000204100496E7075FA
:0E0F52007420566F6C74616765203D200000AE
:00000001FF
